{
  "_format": "hh-sol-artifact-1",
  "contractName": "NFT",
  "sourceName": "contracts/NFT.sol",
  "abi": [
    {
      "inputs": [],
      "stateMutability": "nonpayable",
      "type": "constructor"
    },
    {
      "anonymous": false,
      "inputs": [
        {
          "indexed": true,
          "internalType": "address",
          "name": "owner",
          "type": "address"
        },
        {
          "indexed": true,
          "internalType": "address",
          "name": "approved",
          "type": "address"
        },
        {
          "indexed": true,
          "internalType": "uint256",
          "name": "tokenId",
          "type": "uint256"
        }
      ],
      "name": "Approval",
      "type": "event"
    },
    {
      "anonymous": false,
      "inputs": [
        {
          "indexed": true,
          "internalType": "address",
          "name": "owner",
          "type": "address"
        },
        {
          "indexed": true,
          "internalType": "address",
          "name": "operator",
          "type": "address"
        },
        {
          "indexed": false,
          "internalType": "bool",
          "name": "approved",
          "type": "bool"
        }
      ],
      "name": "ApprovalForAll",
      "type": "event"
    },
    {
      "anonymous": false,
      "inputs": [
        {
          "indexed": true,
          "internalType": "address",
          "name": "from",
          "type": "address"
        },
        {
          "indexed": true,
          "internalType": "address",
          "name": "to",
          "type": "address"
        },
        {
          "indexed": true,
          "internalType": "uint256",
          "name": "tokenId",
          "type": "uint256"
        }
      ],
      "name": "Transfer",
      "type": "event"
    },
    {
      "inputs": [
        {
          "internalType": "address",
          "name": "to",
          "type": "address"
        },
        {
          "internalType": "uint256",
          "name": "tokenId",
          "type": "uint256"
        }
      ],
      "name": "approve",
      "outputs": [],
      "stateMutability": "nonpayable",
      "type": "function"
    },
    {
      "inputs": [
        {
          "internalType": "address",
          "name": "player",
          "type": "address"
        }
      ],
      "name": "awardItem",
      "outputs": [
        {
          "internalType": "uint256",
          "name": "",
          "type": "uint256"
        }
      ],
      "stateMutability": "nonpayable",
      "type": "function"
    },
    {
      "inputs": [
        {
          "internalType": "address",
          "name": "owner",
          "type": "address"
        }
      ],
      "name": "balanceOf",
      "outputs": [
        {
          "internalType": "uint256",
          "name": "",
          "type": "uint256"
        }
      ],
      "stateMutability": "view",
      "type": "function"
    },
    {
      "inputs": [
        {
          "internalType": "uint256",
          "name": "tokenId",
          "type": "uint256"
        }
      ],
      "name": "getApproved",
      "outputs": [
        {
          "internalType": "address",
          "name": "",
          "type": "address"
        }
      ],
      "stateMutability": "view",
      "type": "function"
    },
    {
      "inputs": [
        {
          "internalType": "address",
          "name": "owner",
          "type": "address"
        },
        {
          "internalType": "address",
          "name": "operator",
          "type": "address"
        }
      ],
      "name": "isApprovedForAll",
      "outputs": [
        {
          "internalType": "bool",
          "name": "",
          "type": "bool"
        }
      ],
      "stateMutability": "view",
      "type": "function"
    },
    {
      "inputs": [],
      "name": "name",
      "outputs": [
        {
          "internalType": "string",
          "name": "",
          "type": "string"
        }
      ],
      "stateMutability": "view",
      "type": "function"
    },
    {
      "inputs": [
        {
          "internalType": "uint256",
          "name": "tokenId",
          "type": "uint256"
        }
      ],
      "name": "ownerOf",
      "outputs": [
        {
          "internalType": "address",
          "name": "",
          "type": "address"
        }
      ],
      "stateMutability": "view",
      "type": "function"
    },
    {
      "inputs": [
        {
          "internalType": "address",
          "name": "from",
          "type": "address"
        },
        {
          "internalType": "address",
          "name": "to",
          "type": "address"
        },
        {
          "internalType": "uint256",
          "name": "tokenId",
          "type": "uint256"
        }
      ],
      "name": "safeTransferFrom",
      "outputs": [],
      "stateMutability": "nonpayable",
      "type": "function"
    },
    {
      "inputs": [
        {
          "internalType": "address",
          "name": "from",
          "type": "address"
        },
        {
          "internalType": "address",
          "name": "to",
          "type": "address"
        },
        {
          "internalType": "uint256",
          "name": "tokenId",
          "type": "uint256"
        },
        {
          "internalType": "bytes",
          "name": "_data",
          "type": "bytes"
        }
      ],
      "name": "safeTransferFrom",
      "outputs": [],
      "stateMutability": "nonpayable",
      "type": "function"
    },
    {
      "inputs": [
        {
          "internalType": "address",
          "name": "operator",
          "type": "address"
        },
        {
          "internalType": "bool",
          "name": "approved",
          "type": "bool"
        }
      ],
      "name": "setApprovalForAll",
      "outputs": [],
      "stateMutability": "nonpayable",
      "type": "function"
    },
    {
      "inputs": [
        {
          "internalType": "bytes4",
          "name": "interfaceId",
          "type": "bytes4"
        }
      ],
      "name": "supportsInterface",
      "outputs": [
        {
          "internalType": "bool",
          "name": "",
          "type": "bool"
        }
      ],
      "stateMutability": "view",
      "type": "function"
    },
    {
      "inputs": [],
      "name": "symbol",
      "outputs": [
        {
          "internalType": "string",
          "name": "",
          "type": "string"
        }
      ],
      "stateMutability": "view",
      "type": "function"
    },
    {
      "inputs": [
        {
          "internalType": "uint256",
          "name": "tokenId",
          "type": "uint256"
        }
      ],
      "name": "tokenURI",
      "outputs": [
        {
          "internalType": "string",
          "name": "",
          "type": "string"
        }
      ],
      "stateMutability": "view",
      "type": "function"
    },
    {
      "inputs": [
        {
          "internalType": "address",
          "name": "from",
          "type": "address"
        },
        {
          "internalType": "address",
          "name": "to",
          "type": "address"
        },
        {
          "internalType": "uint256",
          "name": "tokenId",
          "type": "uint256"
        }
      ],
      "name": "transferFrom",
      "outputs": [],
      "stateMutability": "nonpayable",
      "type": "function"
    }
  ],
  "bytecode": "0x60806040523480156200001157600080fd5b506040518060400160405280600881526020017f47616d654974656d0000000000000000000000000000000000000000000000008152506040518060400160405280600381526020017f49544d0000000000000000000000000000000000000000000000000000000000815250816000908051906020019062000096929190620000b8565b508060019080519060200190620000af929190620000b8565b505050620001cd565b828054620000c69062000168565b90600052602060002090601f016020900481019282620000ea576000855562000136565b82601f106200010557805160ff191683800117855562000136565b8280016001018555821562000136579182015b828111156200013557825182559160200191906001019062000118565b5b50905062000145919062000149565b5090565b5b80821115620001645760008160009055506001016200014a565b5090565b600060028204905060018216806200018157607f821691505b602082108114156200019857620001976200019e565b5b50919050565b7f4e487b7100000000000000000000000000000000000000000000000000000000600052602260045260246000fd5b61261980620001dd6000396000f3fe608060405234801561001057600080fd5b50600436106100ea5760003560e01c806370a082311161008c578063b88d4fde11610066578063b88d4fde1461025b578063c87b56dd14610277578063e985e9c5146102a7578063f2fb2120146102d7576100ea565b806370a08231146101f157806395d89b4114610221578063a22cb4651461023f576100ea565b8063095ea7b3116100c8578063095ea7b31461016d57806323b872dd1461018957806342842e0e146101a55780636352211e146101c1576100ea565b806301ffc9a7146100ef57806306fdde031461011f578063081812fc1461013d575b600080fd5b610109600480360381019061010491906118e9565b610307565b6040516101169190611fe1565b60405180910390f35b6101276103e9565b6040516101349190611ffc565b60405180910390f35b6101576004803603810190610152919061193b565b61047b565b6040516101649190611f7a565b60405180910390f35b610187600480360381019061018291906118ad565b610500565b005b6101a3600480360381019061019e91906117a7565b610618565b005b6101bf60048036038101906101ba91906117a7565b610678565b005b6101db60048036038101906101d6919061193b565b610698565b6040516101e89190611f7a565b60405180910390f35b61020b60048036038101906102069190611742565b61074a565b60405161021891906121de565b60405180910390f35b610229610802565b6040516102369190611ffc565b60405180910390f35b61025960048036038101906102549190611871565b610894565b005b610275600480360381019061027091906117f6565b610a15565b005b610291600480360381019061028c919061193b565b610a77565b60405161029e9190611ffc565b60405180910390f35b6102c160048036038101906102bc919061176b565b610b1e565b6040516102ce9190611fe1565b60405180910390f35b6102f160048036038101906102ec9190611742565b610bb2565b6040516102fe91906121de565b60405180910390f35b60007f80ac58cd000000000000000000000000000000000000000000000000000000007bffffffffffffffffffffffffffffffffffffffffffffffffffffffff1916827bffffffffffffffffffffffffffffffffffffffffffffffffffffffff191614806103d257507f5b5e139f000000000000000000000000000000000000000000000000000000007bffffffffffffffffffffffffffffffffffffffffffffffffffffffff1916827bffffffffffffffffffffffffffffffffffffffffffffffffffffffff1916145b806103e257506103e182610bdf565b5b9050919050565b6060600080546103f89061240e565b80601f01602080910402602001604051908101604052809291908181526020018280546104249061240e565b80156104715780601f1061044657610100808354040283529160200191610471565b820191906000526020600020905b81548152906001019060200180831161045457829003601f168201915b5050505050905090565b600061048682610c49565b6104c5576040517f08c379a00000000000000000000000000000000000000000000000000000000081526004016104bc9061213e565b60405180910390fd5b6004600083815260200190815260200160002060009054906101000a900473ffffffffffffffffffffffffffffffffffffffff169050919050565b600061050b82610698565b90508073ffffffffffffffffffffffffffffffffffffffff168373ffffffffffffffffffffffffffffffffffffffff16141561057c576040517f08c379a00000000000000000000000000000000000000000000000000000000081526004016105739061219e565b60405180910390fd5b8073ffffffffffffffffffffffffffffffffffffffff1661059b610cb5565b73ffffffffffffffffffffffffffffffffffffffff1614806105ca57506105c9816105c4610cb5565b610b1e565b5b610609576040517f08c379a0000000000000000000000000000000000000000000000000000000008152600401610600906120be565b60405180910390fd5b6106138383610cbd565b505050565b610629610623610cb5565b82610d76565b610668576040517f08c379a000000000000000000000000000000000000000000000000000000000815260040161065f906121be565b60405180910390fd5b610673838383610e54565b505050565b61069383838360405180602001604052806000815250610a15565b505050565b6000806002600084815260200190815260200160002060009054906101000a900473ffffffffffffffffffffffffffffffffffffffff169050600073ffffffffffffffffffffffffffffffffffffffff168173ffffffffffffffffffffffffffffffffffffffff161415610741576040517f08c379a0000000000000000000000000000000000000000000000000000000008152600401610738906120fe565b60405180910390fd5b80915050919050565b60008073ffffffffffffffffffffffffffffffffffffffff168273ffffffffffffffffffffffffffffffffffffffff1614156107bb576040517f08c379a00000000000000000000000000000000000000000000000000000000081526004016107b2906120de565b60405180910390fd5b600360008373ffffffffffffffffffffffffffffffffffffffff1673ffffffffffffffffffffffffffffffffffffffff168152602001908152602001600020549050919050565b6060600180546108119061240e565b80601f016020809104026020016040519081016040528092919081815260200182805461083d9061240e565b801561088a5780601f1061085f5761010080835404028352916020019161088a565b820191906000526020600020905b81548152906001019060200180831161086d57829003601f168201915b5050505050905090565b61089c610cb5565b73ffffffffffffffffffffffffffffffffffffffff168273ffffffffffffffffffffffffffffffffffffffff16141561090a576040517f08c379a00000000000000000000000000000000000000000000000000000000081526004016109019061207e565b60405180910390fd5b8060056000610917610cb5565b73ffffffffffffffffffffffffffffffffffffffff1673ffffffffffffffffffffffffffffffffffffffff16815260200190815260200160002060008473ffffffffffffffffffffffffffffffffffffffff1673ffffffffffffffffffffffffffffffffffffffff16815260200190815260200160002060006101000a81548160ff0219169083151502179055508173ffffffffffffffffffffffffffffffffffffffff166109c4610cb5565b73ffffffffffffffffffffffffffffffffffffffff167f17307eab39ab6107e8899845ad3d59bd9653f200f220920489ca2b5937696c3183604051610a099190611fe1565b60405180910390a35050565b610a26610a20610cb5565b83610d76565b610a65576040517f08c379a0000000000000000000000000000000000000000000000000000000008152600401610a5c906121be565b60405180910390fd5b610a71848484846110b0565b50505050565b6060610a8282610c49565b610ac1576040517f08c379a0000000000000000000000000000000000000000000000000000000008152600401610ab89061217e565b60405180910390fd5b6000610acb61110c565b90506000815111610aeb5760405180602001604052806000815250610b16565b80610af584611123565b604051602001610b06929190611f56565b6040516020818303038152906040525b915050919050565b6000600560008473ffffffffffffffffffffffffffffffffffffffff1673ffffffffffffffffffffffffffffffffffffffff16815260200190815260200160002060008373ffffffffffffffffffffffffffffffffffffffff1673ffffffffffffffffffffffffffffffffffffffff16815260200190815260200160002060009054906101000a900460ff16905092915050565b6000610bbe60066112d0565b6000610bca60066112e6565b9050610bd683826112f4565b80915050919050565b60007f01ffc9a7000000000000000000000000000000000000000000000000000000007bffffffffffffffffffffffffffffffffffffffffffffffffffffffff1916827bffffffffffffffffffffffffffffffffffffffffffffffffffffffff1916149050919050565b60008073ffffffffffffffffffffffffffffffffffffffff166002600084815260200190815260200160002060009054906101000a900473ffffffffffffffffffffffffffffffffffffffff1673ffffffffffffffffffffffffffffffffffffffff1614159050919050565b600033905090565b816004600083815260200190815260200160002060006101000a81548173ffffffffffffffffffffffffffffffffffffffff021916908373ffffffffffffffffffffffffffffffffffffffff160217905550808273ffffffffffffffffffffffffffffffffffffffff16610d3083610698565b73ffffffffffffffffffffffffffffffffffffffff167f8c5be1e5ebec7d5bd14f71427d1e84f3dd0314c0f7b2291e5b200ac8c7c3b92560405160405180910390a45050565b6000610d8182610c49565b610dc0576040517f08c379a0000000000000000000000000000000000000000000000000000000008152600401610db79061209e565b60405180910390fd5b6000610dcb83610698565b90508073ffffffffffffffffffffffffffffffffffffffff168473ffffffffffffffffffffffffffffffffffffffff161480610e3a57508373ffffffffffffffffffffffffffffffffffffffff16610e228461047b565b73ffffffffffffffffffffffffffffffffffffffff16145b80610e4b5750610e4a8185610b1e565b5b91505092915050565b8273ffffffffffffffffffffffffffffffffffffffff16610e7482610698565b73ffffffffffffffffffffffffffffffffffffffff1614610eca576040517f08c379a0000000000000000000000000000000000000000000000000000000008152600401610ec19061215e565b60405180910390fd5b600073ffffffffffffffffffffffffffffffffffffffff168273ffffffffffffffffffffffffffffffffffffffff161415610f3a576040517f08c379a0000000000000000000000000000000000000000000000000000000008152600401610f319061205e565b60405180910390fd5b610f458383836114c2565b610f50600082610cbd565b6001600360008573ffffffffffffffffffffffffffffffffffffffff1673ffffffffffffffffffffffffffffffffffffffff1681526020019081526020016000206000828254610fa09190612324565b925050819055506001600360008473ffffffffffffffffffffffffffffffffffffffff1673ffffffffffffffffffffffffffffffffffffffff1681526020019081526020016000206000828254610ff7919061229d565b92505081905550816002600083815260200190815260200160002060006101000a81548173ffffffffffffffffffffffffffffffffffffffff021916908373ffffffffffffffffffffffffffffffffffffffff160217905550808273ffffffffffffffffffffffffffffffffffffffff168473ffffffffffffffffffffffffffffffffffffffff167fddf252ad1be2c89b69c2b068fc378daa952ba7f163c4a11628f55a4df523b3ef60405160405180910390a4505050565b6110bb848484610e54565b6110c7848484846114c7565b611106576040517f08c379a00000000000000000000000000000000000000000000000000000000081526004016110fd9061201e565b60405180910390fd5b50505050565b606060405180602001604052806000815250905090565b6060600082141561116b576040518060400160405280600181526020017f300000000000000000000000000000000000000000000000000000000000000081525090506112cb565b600082905060005b6000821461119d57808061118690612440565b915050600a8261119691906122f3565b9150611173565b60008167ffffffffffffffff8111156111df577f4e487b7100000000000000000000000000000000000000000000000000000000600052604160045260246000fd5b6040519080825280601f01601f1916602001820160405280156112115781602001600182028036833780820191505090505b5090505b600085146112c45760018261122a9190612324565b9150600a856112399190612489565b6030611245919061229d565b60f81b818381518110611281577f4e487b7100000000000000000000000000000000000000000000000000000000600052603260045260246000fd5b60200101907effffffffffffffffffffffffffffffffffffffffffffffffffffffffffffff1916908160001a905350600a856112bd91906122f3565b9450611215565b8093505050505b919050565b6001816000016000828254019250508190555050565b600081600001549050919050565b600073ffffffffffffffffffffffffffffffffffffffff168273ffffffffffffffffffffffffffffffffffffffff161415611364576040517f08c379a000000000000000000000000000000000000000000000000000000000815260040161135b9061211e565b60405180910390fd5b61136d81610c49565b156113ad576040517f08c379a00000000000000000000000000000000000000000000000000000000081526004016113a49061203e565b60405180910390fd5b6113b9600083836114c2565b6001600360008473ffffffffffffffffffffffffffffffffffffffff1673ffffffffffffffffffffffffffffffffffffffff1681526020019081526020016000206000828254611409919061229d565b92505081905550816002600083815260200190815260200160002060006101000a81548173ffffffffffffffffffffffffffffffffffffffff021916908373ffffffffffffffffffffffffffffffffffffffff160217905550808273ffffffffffffffffffffffffffffffffffffffff16600073ffffffffffffffffffffffffffffffffffffffff167fddf252ad1be2c89b69c2b068fc378daa952ba7f163c4a11628f55a4df523b3ef60405160405180910390a45050565b505050565b60006114e88473ffffffffffffffffffffffffffffffffffffffff1661165e565b15611651578373ffffffffffffffffffffffffffffffffffffffff1663150b7a02611511610cb5565b8786866040518563ffffffff1660e01b81526004016115339493929190611f95565b602060405180830381600087803b15801561154d57600080fd5b505af192505050801561157e57506040513d601f19601f8201168201806040525081019061157b9190611912565b60015b611601573d80600081146115ae576040519150601f19603f3d011682016040523d82523d6000602084013e6115b3565b606091505b506000815114156115f9576040517f08c379a00000000000000000000000000000000000000000000000000000000081526004016115f09061201e565b60405180910390fd5b805181602001fd5b63150b7a0260e01b7bffffffffffffffffffffffffffffffffffffffffffffffffffffffff1916817bffffffffffffffffffffffffffffffffffffffffffffffffffffffff191614915050611656565b600190505b949350505050565b600080823b905060008111915050919050565b600061168461167f8461222a565b6121f9565b90508281526020810184848401111561169c57600080fd5b6116a78482856123cc565b509392505050565b6000813590506116be81612587565b92915050565b6000813590506116d38161259e565b92915050565b6000813590506116e8816125b5565b92915050565b6000815190506116fd816125b5565b92915050565b600082601f83011261171457600080fd5b8135611724848260208601611671565b91505092915050565b60008135905061173c816125cc565b92915050565b60006020828403121561175457600080fd5b6000611762848285016116af565b91505092915050565b6000806040838503121561177e57600080fd5b600061178c858286016116af565b925050602061179d858286016116af565b9150509250929050565b6000806000606084860312156117bc57600080fd5b60006117ca868287016116af565b93505060206117db868287016116af565b92505060406117ec8682870161172d565b9150509250925092565b6000806000806080858703121561180c57600080fd5b600061181a878288016116af565b945050602061182b878288016116af565b935050604061183c8782880161172d565b925050606085013567ffffffffffffffff81111561185957600080fd5b61186587828801611703565b91505092959194509250565b6000806040838503121561188457600080fd5b6000611892858286016116af565b92505060206118a3858286016116c4565b9150509250929050565b600080604083850312156118c057600080fd5b60006118ce858286016116af565b92505060206118df8582860161172d565b9150509250929050565b6000602082840312156118fb57600080fd5b6000611909848285016116d9565b91505092915050565b60006020828403121561192457600080fd5b6000611932848285016116ee565b91505092915050565b60006020828403121561194d57600080fd5b600061195b8482850161172d565b91505092915050565b61196d81612358565b82525050565b61197c8161236a565b82525050565b600061198d8261225a565b6119978185612270565b93506119a78185602086016123db565b6119b081612576565b840191505092915050565b60006119c682612265565b6119d08185612281565b93506119e08185602086016123db565b6119e981612576565b840191505092915050565b60006119ff82612265565b611a098185612292565b9350611a198185602086016123db565b80840191505092915050565b6000611a32603283612281565b91507f4552433732313a207472616e7366657220746f206e6f6e20455243373231526560008301527f63656976657220696d706c656d656e74657200000000000000000000000000006020830152604082019050919050565b6000611a98601c83612281565b91507f4552433732313a20746f6b656e20616c7265616479206d696e746564000000006000830152602082019050919050565b6000611ad8602483612281565b91507f4552433732313a207472616e7366657220746f20746865207a65726f2061646460008301527f72657373000000000000000000000000000000000000000000000000000000006020830152604082019050919050565b6000611b3e601983612281565b91507f4552433732313a20617070726f766520746f2063616c6c6572000000000000006000830152602082019050919050565b6000611b7e602c83612281565b91507f4552433732313a206f70657261746f7220717565727920666f72206e6f6e657860008301527f697374656e7420746f6b656e00000000000000000000000000000000000000006020830152604082019050919050565b6000611be4603883612281565b91507f4552433732313a20617070726f76652063616c6c6572206973206e6f74206f7760008301527f6e6572206e6f7220617070726f76656420666f7220616c6c00000000000000006020830152604082019050919050565b6000611c4a602a83612281565b91507f4552433732313a2062616c616e636520717565727920666f7220746865207a6560008301527f726f2061646472657373000000000000000000000000000000000000000000006020830152604082019050919050565b6000611cb0602983612281565b91507f4552433732313a206f776e657220717565727920666f72206e6f6e657869737460008301527f656e7420746f6b656e00000000000000000000000000000000000000000000006020830152604082019050919050565b6000611d16602083612281565b91507f4552433732313a206d696e7420746f20746865207a65726f20616464726573736000830152602082019050919050565b6000611d56602c83612281565b91507f4552433732313a20617070726f76656420717565727920666f72206e6f6e657860008301527f697374656e7420746f6b656e00000000000000000000000000000000000000006020830152604082019050919050565b6000611dbc602983612281565b91507f4552433732313a207472616e73666572206f6620746f6b656e2074686174206960008301527f73206e6f74206f776e00000000000000000000000000000000000000000000006020830152604082019050919050565b6000611e22602f83612281565b91507f4552433732314d657461646174613a2055524920717565727920666f72206e6f60008301527f6e6578697374656e7420746f6b656e00000000000000000000000000000000006020830152604082019050919050565b6000611e88602183612281565b91507f4552433732313a20617070726f76616c20746f2063757272656e74206f776e6560008301527f72000000000000000000000000000000000000000000000000000000000000006020830152604082019050919050565b6000611eee603183612281565b91507f4552433732313a207472616e736665722063616c6c6572206973206e6f74206f60008301527f776e6572206e6f7220617070726f7665640000000000000000000000000000006020830152604082019050919050565b611f50816123c2565b82525050565b6000611f6282856119f4565b9150611f6e82846119f4565b91508190509392505050565b6000602082019050611f8f6000830184611964565b92915050565b6000608082019050611faa6000830187611964565b611fb76020830186611964565b611fc46040830185611f47565b8181036060830152611fd68184611982565b905095945050505050565b6000602082019050611ff66000830184611973565b92915050565b6000602082019050818103600083015261201681846119bb565b905092915050565b6000602082019050818103600083015261203781611a25565b9050919050565b6000602082019050818103600083015261205781611a8b565b9050919050565b6000602082019050818103600083015261207781611acb565b9050919050565b6000602082019050818103600083015261209781611b31565b9050919050565b600060208201905081810360008301526120b781611b71565b9050919050565b600060208201905081810360008301526120d781611bd7565b9050919050565b600060208201905081810360008301526120f781611c3d565b9050919050565b6000602082019050818103600083015261211781611ca3565b9050919050565b6000602082019050818103600083015261213781611d09565b9050919050565b6000602082019050818103600083015261215781611d49565b9050919050565b6000602082019050818103600083015261217781611daf565b9050919050565b6000602082019050818103600083015261219781611e15565b9050919050565b600060208201905081810360008301526121b781611e7b565b9050919050565b600060208201905081810360008301526121d781611ee1565b9050919050565b60006020820190506121f36000830184611f47565b92915050565b6000604051905081810181811067ffffffffffffffff821117156122205761221f612547565b5b8060405250919050565b600067ffffffffffffffff82111561224557612244612547565b5b601f19601f8301169050602081019050919050565b600081519050919050565b600081519050919050565b600082825260208201905092915050565b600082825260208201905092915050565b600081905092915050565b60006122a8826123c2565b91506122b3836123c2565b9250827fffffffffffffffffffffffffffffffffffffffffffffffffffffffffffffffff038211156122e8576122e76124ba565b5b828201905092915050565b60006122fe826123c2565b9150612309836123c2565b925082612319576123186124e9565b5b828204905092915050565b600061232f826123c2565b915061233a836123c2565b92508282101561234d5761234c6124ba565b5b828203905092915050565b6000612363826123a2565b9050919050565b60008115159050919050565b60007fffffffff0000000000000000000000000000000000000000000000000000000082169050919050565b600073ffffffffffffffffffffffffffffffffffffffff82169050919050565b6000819050919050565b82818337600083830152505050565b60005b838110156123f95780820151818401526020810190506123de565b83811115612408576000848401525b50505050565b6000600282049050600182168061242657607f821691505b6020821081141561243a57612439612518565b5b50919050565b600061244b826123c2565b91507fffffffffffffffffffffffffffffffffffffffffffffffffffffffffffffffff82141561247e5761247d6124ba565b5b600182019050919050565b6000612494826123c2565b915061249f836123c2565b9250826124af576124ae6124e9565b5b828206905092915050565b7f4e487b7100000000000000000000000000000000000000000000000000000000600052601160045260246000fd5b7f4e487b7100000000000000000000000000000000000000000000000000000000600052601260045260246000fd5b7f4e487b7100000000000000000000000000000000000000000000000000000000600052602260045260246000fd5b7f4e487b7100000000000000000000000000000000000000000000000000000000600052604160045260246000fd5b6000601f19601f8301169050919050565b61259081612358565b811461259b57600080fd5b50565b6125a78161236a565b81146125b257600080fd5b50565b6125be81612376565b81146125c957600080fd5b50565b6125d5816123c2565b81146125e057600080fd5b5056fea26469706673582212201bbcc571cc8ca3c0872beb9abdc9db2e04110a440a7d45ada7cc3650c0f837cb64736f6c63430008000033",
  "linkReferences": {},
  "deployedLinkReferences": {}
}