{
  "_format": "hh-sol-artifact-1",
  "contractName": "MockContract",
  "sourceName": "contracts/MockContract.sol",
  "abi": [
    {
      "inputs": [],
      "stateMutability": "nonpayable",
      "type": "constructor"
    },
    {
      "stateMutability": "payable",
      "type": "fallback"
    },
    {
      "inputs": [],
      "name": "DEFAULT_FALLBACK_VALUE",
      "outputs": [
        {
          "internalType": "bytes",
          "name": "",
          "type": "bytes"
        }
      ],
      "stateMutability": "view",
      "type": "function"
    },
    {
      "inputs": [],
      "name": "MOCKS_LIST_END",
      "outputs": [
        {
          "internalType": "bytes",
          "name": "",
          "type": "bytes"
        }
      ],
      "stateMutability": "view",
      "type": "function"
    },
    {
      "inputs": [],
      "name": "MOCKS_LIST_END_HASH",
      "outputs": [
        {
          "internalType": "bytes32",
          "name": "",
          "type": "bytes32"
        }
      ],
      "stateMutability": "view",
      "type": "function"
    },
    {
      "inputs": [],
      "name": "MOCKS_LIST_START",
      "outputs": [
        {
          "internalType": "bytes32",
          "name": "",
          "type": "bytes32"
        }
      ],
      "stateMutability": "view",
      "type": "function"
    },
    {
      "inputs": [],
      "name": "SENTINEL_ANY_MOCKS",
      "outputs": [
        {
          "internalType": "bytes4",
          "name": "",
          "type": "bytes4"
        }
      ],
      "stateMutability": "view",
      "type": "function"
    },
    {
      "inputs": [
        {
          "internalType": "bytes",
          "name": "response",
          "type": "bytes"
        }
      ],
      "name": "givenAnyReturn",
      "outputs": [],
      "stateMutability": "nonpayable",
      "type": "function"
    },
    {
      "inputs": [
        {
          "internalType": "address",
          "name": "response",
          "type": "address"
        }
      ],
      "name": "givenAnyReturnAddress",
      "outputs": [],
      "stateMutability": "nonpayable",
      "type": "function"
    },
    {
      "inputs": [
        {
          "internalType": "bool",
          "name": "response",
          "type": "bool"
        }
      ],
      "name": "givenAnyReturnBool",
      "outputs": [],
      "stateMutability": "nonpayable",
      "type": "function"
    },
    {
      "inputs": [
        {
          "internalType": "uint256",
          "name": "response",
          "type": "uint256"
        }
      ],
      "name": "givenAnyReturnUint",
      "outputs": [],
      "stateMutability": "nonpayable",
      "type": "function"
    },
    {
      "inputs": [],
      "name": "givenAnyRevert",
      "outputs": [],
      "stateMutability": "nonpayable",
      "type": "function"
    },
    {
      "inputs": [
        {
          "internalType": "string",
          "name": "message",
          "type": "string"
        }
      ],
      "name": "givenAnyRevertWithMessage",
      "outputs": [],
      "stateMutability": "nonpayable",
      "type": "function"
    },
    {
      "inputs": [],
      "name": "givenAnyRunOutOfGas",
      "outputs": [],
      "stateMutability": "nonpayable",
      "type": "function"
    },
    {
      "inputs": [
        {
          "internalType": "bytes",
          "name": "call",
          "type": "bytes"
        },
        {
          "internalType": "bytes",
          "name": "response",
          "type": "bytes"
        }
      ],
      "name": "givenCalldataReturn",
      "outputs": [],
      "stateMutability": "nonpayable",
      "type": "function"
    },
    {
      "inputs": [
        {
          "internalType": "bytes",
          "name": "call",
          "type": "bytes"
        },
        {
          "internalType": "address",
          "name": "response",
          "type": "address"
        }
      ],
      "name": "givenCalldataReturnAddress",
      "outputs": [],
      "stateMutability": "nonpayable",
      "type": "function"
    },
    {
      "inputs": [
        {
          "internalType": "bytes",
          "name": "call",
          "type": "bytes"
        },
        {
          "internalType": "bool",
          "name": "response",
          "type": "bool"
        }
      ],
      "name": "givenCalldataReturnBool",
      "outputs": [],
      "stateMutability": "nonpayable",
      "type": "function"
    },
    {
      "inputs": [
        {
          "internalType": "bytes",
          "name": "call",
          "type": "bytes"
        },
        {
          "internalType": "uint256",
          "name": "response",
          "type": "uint256"
        }
      ],
      "name": "givenCalldataReturnUint",
      "outputs": [],
      "stateMutability": "nonpayable",
      "type": "function"
    },
    {
      "inputs": [
        {
          "internalType": "bytes",
          "name": "call",
          "type": "bytes"
        }
      ],
      "name": "givenCalldataRevert",
      "outputs": [],
      "stateMutability": "nonpayable",
      "type": "function"
    },
    {
      "inputs": [
        {
          "internalType": "bytes",
          "name": "call",
          "type": "bytes"
        },
        {
          "internalType": "string",
          "name": "message",
          "type": "string"
        }
      ],
      "name": "givenCalldataRevertWithMessage",
      "outputs": [],
      "stateMutability": "nonpayable",
      "type": "function"
    },
    {
      "inputs": [
        {
          "internalType": "bytes",
          "name": "call",
          "type": "bytes"
        }
      ],
      "name": "givenCalldataRunOutOfGas",
      "outputs": [],
      "stateMutability": "nonpayable",
      "type": "function"
    },
    {
      "inputs": [
        {
          "internalType": "bytes",
          "name": "call",
          "type": "bytes"
        },
        {
          "internalType": "bytes",
          "name": "response",
          "type": "bytes"
        }
      ],
      "name": "givenMethodReturn",
      "outputs": [],
      "stateMutability": "nonpayable",
      "type": "function"
    },
    {
      "inputs": [
        {
          "internalType": "bytes",
          "name": "call",
          "type": "bytes"
        },
        {
          "internalType": "address",
          "name": "response",
          "type": "address"
        }
      ],
      "name": "givenMethodReturnAddress",
      "outputs": [],
      "stateMutability": "nonpayable",
      "type": "function"
    },
    {
      "inputs": [
        {
          "internalType": "bytes",
          "name": "call",
          "type": "bytes"
        },
        {
          "internalType": "bool",
          "name": "response",
          "type": "bool"
        }
      ],
      "name": "givenMethodReturnBool",
      "outputs": [],
      "stateMutability": "nonpayable",
      "type": "function"
    },
    {
      "inputs": [
        {
          "internalType": "bytes",
          "name": "call",
          "type": "bytes"
        },
        {
          "internalType": "uint256",
          "name": "response",
          "type": "uint256"
        }
      ],
      "name": "givenMethodReturnUint",
      "outputs": [],
      "stateMutability": "nonpayable",
      "type": "function"
    },
    {
      "inputs": [
        {
          "internalType": "bytes",
          "name": "call",
          "type": "bytes"
        }
      ],
      "name": "givenMethodRevert",
      "outputs": [],
      "stateMutability": "nonpayable",
      "type": "function"
    },
    {
      "inputs": [
        {
          "internalType": "bytes",
          "name": "call",
          "type": "bytes"
        },
        {
          "internalType": "string",
          "name": "message",
          "type": "string"
        }
      ],
      "name": "givenMethodRevertWithMessage",
      "outputs": [],
      "stateMutability": "nonpayable",
      "type": "function"
    },
    {
      "inputs": [
        {
          "internalType": "bytes",
          "name": "call",
          "type": "bytes"
        }
      ],
      "name": "givenMethodRunOutOfGas",
      "outputs": [],
      "stateMutability": "nonpayable",
      "type": "function"
    },
    {
      "inputs": [],
      "name": "invocationCount",
      "outputs": [
        {
          "internalType": "uint256",
          "name": "",
          "type": "uint256"
        }
      ],
      "stateMutability": "nonpayable",
      "type": "function"
    },
    {
      "inputs": [
        {
          "internalType": "bytes",
          "name": "call",
          "type": "bytes"
        }
      ],
      "name": "invocationCountForCalldata",
      "outputs": [
        {
          "internalType": "uint256",
          "name": "",
          "type": "uint256"
        }
      ],
      "stateMutability": "nonpayable",
      "type": "function"
    },
    {
      "inputs": [
        {
          "internalType": "bytes",
          "name": "call",
          "type": "bytes"
        }
      ],
      "name": "invocationCountForMethod",
      "outputs": [
        {
          "internalType": "uint256",
          "name": "",
          "type": "uint256"
        }
      ],
      "stateMutability": "nonpayable",
      "type": "function"
    },
    {
      "inputs": [],
      "name": "reset",
      "outputs": [],
      "stateMutability": "nonpayable",
      "type": "function"
    },
    {
      "inputs": [
        {
          "internalType": "bytes4",
          "name": "methodId",
          "type": "bytes4"
        },
        {
          "internalType": "bytes",
          "name": "originalMsgData",
          "type": "bytes"
        }
      ],
      "name": "updateInvocationCount",
      "outputs": [],
      "stateMutability": "nonpayable",
      "type": "function"
    }
  ],
  "bytecode": "0x608060405260006040516020018082151515158152602001915050604051602081830303815290604052600b90805190602001906200004092919062000180565b503480156200004e57600080fd5b506040518060400160405280600481526020017f30786666000000000000000000000000000000000000000000000000000000008152506000807f010000000000000000000000000000000000000000000000000000000000000081526020019081526020016000209080519060200190620000cc92919062000180565b507f0100000000000000000000000000000000000000000000000000000000000000600560007f01000000000000000000000000000000000000000000000000000000000000007bffffffffffffffffffffffffffffffffffffffffffffffffffffffff19167bffffffffffffffffffffffffffffffffffffffffffffffffffffffff1916815260200190815260200160002060006101000a81548163ffffffff021916908360e01c02179055506200022f565b828054600181600116156101000203166002900490600052602060002090601f016020900481019282601f10620001c357805160ff1916838001178555620001f4565b82800160010185558215620001f4579182015b82811115620001f3578251825591602001919060010190620001d6565b5b50905062000203919062000207565b5090565b6200022c91905b80821115620002285760008160009055506001016200020e565b5090565b90565b613ad7806200023f6000396000f3fe6080604052600436106101dc5760003560e01c80637cd96ee411610102578063cf11ff5d11610095578063e211b8a511610064578063e211b8a5146118a9578063eb861f69146118c0578063f07da22914611946578063f5afa9c1146119af576101dd565b8063cf11ff5d146116d6578063d6fe97781461177c578063d73ca0ac14611802578063d826f88f14611892576101dd565b8063aa788c55116100d1578063aa788c5514611494578063af21ac781461151a578063b3901f2914611555578063c6ee167f146115fb576101dd565b80637cd96ee4146111c857806387abab65146112585780639a1dc86b146112de5780639eaeed75146113b9576101dd565b8063586984a41161017a57806367aad04a1161014957806367aad04a14611034578063682b47971461105f57806368ab6f2f146110b05780636f40075614611136576101dd565b8063586984a414610d3c57806358cbc02514610dd65780635a3855ab14610ec75780636193659414610f59576101dd565b80632ed238dc116101b65780632ed238dc14610c2357806336ff0ee514610c4e5780633956dc6b14610c8b5780634937c4f614610ca2576101dd565b80630a20119f14610ae2578063122aea8114610b0d57806321fed4d614610b9d576101dd565b5b600080359050600160028111156101f057fe5b6001600036604051808383808284378083019250505092505050908152602001604051809103902060009054906101000a900460ff16600281111561023157fe5b141561031d57600360003660405180838380828437808301925050509250505090815260200160405180910390206040517f08c379a0000000000000000000000000000000000000000000000000000000008152600401808060200182810382528381815460018160011615610100020316600290048152602001915080546001816001161561010002031660029004801561030e5780601f106102e35761010080835404028352916020019161030e565b820191906000526020600020905b8154815290600101906020018083116102f157829003601f168201915b50509250505060405180910390fd5b60028081111561032957fe5b6001600036604051808383808284378083019250505092505050908152602001604051809103902060009054906101000a900460ff16600281111561036a57fe5b141561037957610378611a3f565b5b6060600260003660405180838380828437808301925050509250505090815260200160405180910390208054600181600116156101000203166002900480601f0160208091040260200160405190810160405280929190818152602001828054600181600116156101000203166002900480156104375780601f1061040c57610100808354040283529160200191610437565b820191906000526020600020905b81548152906001019060200180831161041a57829003601f168201915b50505050509050600081511415610746576001600281111561045557fe5b60066000847bffffffffffffffffffffffffffffffffffffffffffffffffffffffff19167bffffffffffffffffffffffffffffffffffffffffffffffffffffffff1916815260200190815260200160002060009054906101000a900460ff1660028111156104bf57fe5b14156105d45760086000837bffffffffffffffffffffffffffffffffffffffffffffffffffffffff19167bffffffffffffffffffffffffffffffffffffffffffffffffffffffff191681526020019081526020016000206040517f08c379a000000000000000000000000000000000000000000000000000000000815260040180806020018281038252838181546001816001161561010002031660029004815260200191508054600181600116156101000203166002900480156105c55780601f1061059a576101008083540402835291602001916105c5565b820191906000526020600020905b8154815290600101906020018083116105a857829003601f168201915b50509250505060405180910390fd5b6002808111156105e057fe5b60066000847bffffffffffffffffffffffffffffffffffffffffffffffffffffffff19167bffffffffffffffffffffffffffffffffffffffffffffffffffffffff1916815260200190815260200160002060009054906101000a900460ff16600281111561064a57fe5b141561065957610658611a3f565b5b60076000837bffffffffffffffffffffffffffffffffffffffffffffffffffffffff19167bffffffffffffffffffffffffffffffffffffffffffffffffffffffff191681526020019081526020016000208054600181600116156101000203166002900480601f01602080910402602001604051908101604052809291908181526020018280546001816001161561010002031660029004801561073e5780601f106107135761010080835404028352916020019161073e565b820191906000526020600020905b81548152906001019060200180831161072157829003601f168201915b505050505090505b600081511415610912576001600281111561075d57fe5b600a60009054906101000a900460ff16600281111561077857fe5b141561083e57600c6040517f08c379a0000000000000000000000000000000000000000000000000000000008152600401808060200182810382528381815460018160011615610100020316600290048152602001915080546001816001161561010002031660029004801561082f5780601f106108045761010080835404028352916020019161082f565b820191906000526020600020905b81548152906001019060200180831161081257829003601f168201915b50509250505060405180910390fd5b60028081111561084a57fe5b600a60009054906101000a900460ff16600281111561086557fe5b141561087457610873611a3f565b5b600b8054600181600116156101000203166002900480601f01602080910402602001604051908101604052809291908181526020018280546001816001161561010002031660029004801561090a5780601f106108df5761010080835404028352916020019161090a565b820191906000526020600020905b8154815290600101906020018083116108ed57829003601f168201915b505050505090505b60603073ffffffffffffffffffffffffffffffffffffffff16620186a08460003660405160240180847bffffffffffffffffffffffffffffffffffffffffffffffffffffffff19167bffffffffffffffffffffffffffffffffffffffffffffffffffffffff19168152602001806020018281038252848482818152602001925080828437600081840152601f19601f8201169050808301925050509450505050506040516020818303038152906040527f58cbc025000000000000000000000000000000000000000000000000000000007bffffffffffffffffffffffffffffffffffffffffffffffffffffffff19166020820180517bffffffffffffffffffffffffffffffffffffffffffffffffffffffff83818316178352505050506040518082805190602001908083835b60208310610a635780518252602082019150602081019050602083039250610a40565b6001836020036101000a03801982511681845116808217855250505050505090500191505060006040518083038160008787f1925050503d8060008114610ac6576040519150601f19603f3d011682016040523d82523d6000602084013e610acb565b606091505b509150506000815114610ada57fe5b815182602001f35b348015610aee57600080fd5b50610af7611a64565b6040518082815260200191505060405180910390f35b348015610b1957600080fd5b50610b22611a6e565b6040518080602001828103825283818151815260200191508051906020019080838360005b83811015610b62578082015181840152602081019050610b47565b50505050905090810190601f168015610b8f5780820380516001836020036101000a031916815260200191505b509250505060405180910390f35b348015610ba957600080fd5b50610c2160048036036020811015610bc057600080fd5b8101908080359060200190640100000000811115610bdd57600080fd5b820183602082011115610bef57600080fd5b80359060200191846001830284011164010000000083111715610c1157600080fd5b9091929391929390505050611a96565b005b348015610c2f57600080fd5b50610c38611b30565b6040518082815260200191505060405180910390f35b348015610c5a57600080fd5b50610c8960048036036020811015610c7157600080fd5b81019080803515159060200190929190505050611bc9565b005b348015610c9757600080fd5b50610ca0611bf4565b005b348015610cae57600080fd5b50610d2660048036036020811015610cc557600080fd5b8101908080359060200190640100000000811115610ce257600080fd5b820183602082011115610cf457600080fd5b80359060200191846001830284011164010000000083111715610d1657600080fd5b9091929391929390505050611c1a565b6040518082815260200191505060405180910390f35b348015610d4857600080fd5b50610dc060048036036020811015610d5f57600080fd5b8101908080359060200190640100000000811115610d7c57600080fd5b820183602082011115610d8e57600080fd5b80359060200191846001830284011164010000000083111715610db057600080fd5b9091929391929390505050611cf7565b6040518082815260200191505060405180910390f35b348015610de257600080fd5b50610ec560048036036040811015610df957600080fd5b8101908080357bffffffffffffffffffffffffffffffffffffffffffffffffffffffff1916906020019092919080359060200190640100000000811115610e3f57600080fd5b820183602082011115610e5157600080fd5b80359060200191846001830284011164010000000083111715610e7357600080fd5b91908080601f016020809104026020016040519081016040528093929190818152602001838380828437600081840152601f19601f820116905080830192505050505050509192919290505050611d4e565b005b348015610ed357600080fd5b50610f5760048036036040811015610eea57600080fd5b8101908080359060200190640100000000811115610f0757600080fd5b820183602082011115610f1957600080fd5b80359060200191846001830284011164010000000083111715610f3b57600080fd5b9091929391929390803515159060200190929190505050611f14565b005b348015610f6557600080fd5b5061103260048036036040811015610f7c57600080fd5b8101908080359060200190640100000000811115610f9957600080fd5b820183602082011115610fab57600080fd5b80359060200191846001830284011164010000000083111715610fcd57600080fd5b909192939192939080359060200190640100000000811115610fee57600080fd5b82018360208201111561100057600080fd5b8035906020019184600183028401116401000000008311171561102257600080fd5b9091929391929390505050611f86565b005b34801561104057600080fd5b5061104961201e565b6040518082815260200191505060405180910390f35b34801561106b57600080fd5b506110ae6004803603602081101561108257600080fd5b81019080803573ffffffffffffffffffffffffffffffffffffffff169060200190929190505050612042565b005b3480156110bc57600080fd5b50611134600480360360208110156110d357600080fd5b81019080803590602001906401000000008111156110f057600080fd5b82018360208201111561110257600080fd5b8035906020019184600183028401116401000000008311171561112457600080fd5b909192939192939050505061206c565b005b34801561114257600080fd5b506111c66004803603604081101561115957600080fd5b810190808035906020019064010000000081111561117657600080fd5b82018360208201111561118857600080fd5b803590602001918460018302840111640100000000831117156111aa57600080fd5b909192939192939080351515906020019092919050505061213e565b005b3480156111d457600080fd5b506111dd6121b0565b6040518080602001828103825283818151815260200191508051906020019080838360005b8381101561121d578082015181840152602081019050611202565b50505050905090810190601f16801561124a5780820380516001836020036101000a031916815260200191505b509250505060405180910390f35b34801561126457600080fd5b506112dc6004803603602081101561127b57600080fd5b810190808035906020019064010000000081111561129857600080fd5b8201836020820111156112aa57600080fd5b803590602001918460018302840111640100000000831117156112cc57600080fd5b90919293919293905050506121e9565b005b3480156112ea57600080fd5b506113b76004803603604081101561130157600080fd5b810190808035906020019064010000000081111561131e57600080fd5b82018360208201111561133057600080fd5b8035906020019184600183028401116401000000008311171561135257600080fd5b90919293919293908035906020019064010000000081111561137357600080fd5b82018360208201111561138557600080fd5b803590602001918460018302840111640100000000831117156113a757600080fd5b9091929391929390505050612223565b005b3480156113c557600080fd5b50611492600480360360408110156113dc57600080fd5b81019080803590602001906401000000008111156113f957600080fd5b82018360208201111561140b57600080fd5b8035906020019184600183028401116401000000008311171561142d57600080fd5b90919293919293908035906020019064010000000081111561144e57600080fd5b82018360208201111561146057600080fd5b8035906020019184600183028401116401000000008311171561148257600080fd5b9091929391929390505050612358565b005b3480156114a057600080fd5b50611518600480360360208110156114b757600080fd5b81019080803590602001906401000000008111156114d457600080fd5b8201836020820111156114e657600080fd5b8035906020019184600183028401116401000000008311171561150857600080fd5b909192939192939050505061242a565b005b34801561152657600080fd5b506115536004803603602081101561153d57600080fd5b81019080803590602001909291905050506124fc565b005b34801561156157600080fd5b506115f96004803603604081101561157857600080fd5b810190808035906020019064010000000081111561159557600080fd5b8201836020820111156115a757600080fd5b803590602001918460018302840111640100000000831117156115c957600080fd5b9091929391929390803573ffffffffffffffffffffffffffffffffffffffff169060200190929190505050612510565b005b34801561160757600080fd5b506116d46004803603604081101561161e57600080fd5b810190808035906020019064010000000081111561163b57600080fd5b82018360208201111561164d57600080fd5b8035906020019184600183028401116401000000008311171561166f57600080fd5b90919293919293908035906020019064010000000081111561169057600080fd5b8201836020820111156116a257600080fd5b803590602001918460018302840111640100000000831117156116c457600080fd5b9091929391929390505050612581565b005b3480156116e257600080fd5b5061177a600480360360408110156116f957600080fd5b810190808035906020019064010000000081111561171657600080fd5b82018360208201111561172857600080fd5b8035906020019184600183028401116401000000008311171561174a57600080fd5b9091929391929390803573ffffffffffffffffffffffffffffffffffffffff169060200190929190505050612619565b005b34801561178857600080fd5b506118006004803603602081101561179f57600080fd5b81019080803590602001906401000000008111156117bc57600080fd5b8201836020820111156117ce57600080fd5b803590602001918460018302840111640100000000831117156117f057600080fd5b909192939192939050505061268a565b005b34801561180e57600080fd5b506118906004803603604081101561182557600080fd5b810190808035906020019064010000000081111561184257600080fd5b82018360208201111561185457600080fd5b8035906020019184600183028401116401000000008311171561187657600080fd5b9091929391929390803590602001909291905050506126db565b005b34801561189e57600080fd5b506118a7612736565b005b3480156118b557600080fd5b506118be61300e565b005b3480156118cc57600080fd5b50611944600480360360208110156118e357600080fd5b810190808035906020019064010000000081111561190057600080fd5b82018360208201111561191257600080fd5b8035906020019184600183028401116401000000008311171561193457600080fd5b909192939192939050505061305a565b005b34801561195257600080fd5b5061195b61313e565b60405180827bffffffffffffffffffffffffffffffffffffffffffffffffffffffff19167bffffffffffffffffffffffffffffffffffffffffffffffffffffffff1916815260200191505060405180910390f35b3480156119bb57600080fd5b50611a3d600480360360408110156119d257600080fd5b81019080803590602001906401000000008111156119ef57600080fd5b820183602082011115611a0157600080fd5b80359060200191846001830284011164010000000083111715611a2357600080fd5b909192939192939080359060200190929190505050613162565b005b5b600115611a625760006060600060c060008060066107d05a03f1905050611a40565b565b6000600d54905090565b6000604051602001808215151515815260200191505060405160208183030381529060405281565b600260018383604051808383808284378083019250505092505050908152602001604051809103902060006101000a81548160ff02191690836002811115611ada57fe5b0217905550611b2c82828080601f016020809104026020016040519081016040528093929190818152602001838380828437600081840152601f19601f820116905080830192505050505050506131bd565b5050565b6040518060400160405280600481526020017f30786666000000000000000000000000000000000000000000000000000000008152506040518082805190602001908083835b60208310611b995780518252602082019150602081019050602083039250611b76565b6001836020036101000a038019825116818451168082178552505050505050905001915050604051809103902081565b600081611bd7576000611bda565b60015b60ff169050611bf0611beb826132a8565b6132ec565b5050565b6002600a60006101000a81548160ff02191690836002811115611c1357fe5b0217905550565b600080611c6a84848080601f016020809104026020016040519081016040528093929190818152602001838380828437600081840152601f19601f8201169050808301925050505050505061332a565b905060096000600e548360405160200180838152602001827bffffffffffffffffffffffffffffffffffffffffffffffffffffffff19167bffffffffffffffffffffffffffffffffffffffffffffffffffffffff19168152600401925050506040516020818303038152906040528051906020012081526020019081526020016000205491505092915050565b600060046000600e5485856040516020018084815260200183838082843780830192505050935050505060405160208183030381529060405280519060200120815260200190815260200160002054905092915050565b3073ffffffffffffffffffffffffffffffffffffffff163373ffffffffffffffffffffffffffffffffffffffff1614611dd2576040517f08c379a000000000000000000000000000000000000000000000000000000000815260040180806020018281038252602b815260200180613a77602b913960400191505060405180910390fd5b6001600d60008282540192505081905550600160096000600e548560405160200180838152602001827bffffffffffffffffffffffffffffffffffffffffffffffffffffffff19167bffffffffffffffffffffffffffffffffffffffffffffffffffffffff191681526004019250505060405160208183030381529060405280519060200120815260200190815260200160002060008282540192505081905550600160046000600e54846040516020018083815260200182805190602001908083835b60208310611eb95780518252602082019150602081019050602083039250611e96565b6001836020036101000a03801982511681845116808217855250505050505090500192505050604051602081830303815290604052805190602001208152602001908152602001600020600082825401925050819055505050565b600081611f22576000611f25565b60015b60ff169050611f8084848080601f016020809104026020016040519081016040528093929190818152602001838380828437600081840152601f19601f82011690508083019250505050505050611f7b836132a8565b6133bb565b50505050565b61201884848080601f016020809104026020016040519081016040528093929190818152602001838380828437600081840152601f19601f8201169050808301925050505050505083838080601f016020809104026020016040519081016040528093929190818152602001838380828437600081840152601f19601f820116905080830192505050505050506133bb565b50505050565b7f010000000000000000000000000000000000000000000000000000000000000081565b6120696120648273ffffffffffffffffffffffffffffffffffffffff166132a8565b6132ec565b50565b60006120bb83838080601f016020809104026020016040519081016040528093929190818152602001838380828437600081840152601f19601f8201169050808301925050505050505061332a565b9050600260066000837bffffffffffffffffffffffffffffffffffffffffffffffffffffffff19167bffffffffffffffffffffffffffffffffffffffffffffffffffffffff1916815260200190815260200160002060006101000a81548160ff0219169083600281111561212b57fe5b0217905550612139816134d1565b505050565b60008161214c57600061214f565b60015b60ff1690506121aa84848080601f016020809104026020016040519081016040528093929190818152602001838380828437600081840152601f19601f820116905080830192505050505050506121a5836132a8565b6136d6565b50505050565b6040518060400160405280600481526020017f307866660000000000000000000000000000000000000000000000000000000081525081565b6001600a60006101000a81548160ff0219169083600281111561220857fe5b02179055508181600c919061221e9291906137ca565b505050565b600061227285858080601f016020809104026020016040519081016040528093929190818152602001838380828437600081840152601f19601f8201169050808301925050505050505061332a565b9050600160066000837bffffffffffffffffffffffffffffffffffffffffffffffffffffffff19167bffffffffffffffffffffffffffffffffffffffffffffffffffffffff1916815260200190815260200160002060006101000a81548160ff021916908360028111156122e257fe5b0217905550828260086000847bffffffffffffffffffffffffffffffffffffffffffffffffffffffff19167bffffffffffffffffffffffffffffffffffffffffffffffffffffffff1916815260200190815260200160002091906123479291906137ca565b50612351816134d1565b5050505050565b6001808585604051808383808284378083019250505092505050908152602001604051809103902060006101000a81548160ff0219169083600281111561239b57fe5b0217905550818160038686604051808383808284378083019250505092505050908152602001604051809103902091906123d69291906137ca565b5061242484848080601f016020809104026020016040519081016040528093929190818152602001838380828437600081840152601f19601f820116905080830192505050505050506131bd565b50505050565b600061247983838080601f016020809104026020016040519081016040528093929190818152602001838380828437600081840152601f19601f8201169050808301925050505050505061332a565b9050600160066000837bffffffffffffffffffffffffffffffffffffffffffffffffffffffff19167bffffffffffffffffffffffffffffffffffffffffffffffffffffffff1916815260200190815260200160002060006101000a81548160ff021916908360028111156124e957fe5b02179055506124f7816134d1565b505050565b61250d612508826132a8565b6132ec565b50565b61257c83838080601f016020809104026020016040519081016040528093929190818152602001838380828437600081840152601f19601f820116905080830192505050505050506125778373ffffffffffffffffffffffffffffffffffffffff166132a8565b6133bb565b505050565b61261384848080601f016020809104026020016040519081016040528093929190818152602001838380828437600081840152601f19601f8201169050808301925050505050505083838080601f016020809104026020016040519081016040528093929190818152602001838380828437600081840152601f19601f820116905080830192505050505050506136d6565b50505050565b61268583838080601f016020809104026020016040519081016040528093929190818152602001838380828437600081840152601f19601f820116905080830192505050505050506126808373ffffffffffffffffffffffffffffffffffffffff166132a8565b6136d6565b505050565b6126d782828080601f016020809104026020016040519081016040528093929190818152602001838380828437600081840152601f19601f820116905080830192505050505050506132ec565b5050565b61273183838080601f016020809104026020016040519081016040528093929190818152602001838380828437600081840152601f19601f8201169050808301925050505050505061272c836132a8565b6133bb565b505050565b60606000807f010000000000000000000000000000000000000000000000000000000000000081526020019081526020016000208054600181600116156101000203166002900480601f0160208091040260200160405190810160405280929190818152602001828054600181600116156101000203166002900480156127fe5780601f106127d3576101008083540402835291602001916127fe565b820191906000526020600020905b8154815290600101906020018083116127e157829003601f168201915b505050505090506000818051906020012090505b6040518060400160405280600481526020017f30786666000000000000000000000000000000000000000000000000000000008152506040518082805190602001908083835b6020831061287b5780518252602082019150602081019050602083039250612858565b6001836020036101000a03801982511681845116808217855250505050505090500191505060405180910390208114612b455760006001836040518082805190602001908083835b602083106128e657805182526020820191506020810190506020830392506128c3565b6001836020036101000a038019825116818451168082178552505050505050905001915050908152602001604051809103902060006101000a81548160ff0219169083600281111561293457fe5b0217905550604051806020016040528060008152506002836040518082805190602001908083835b6020831061297f578051825260208201915060208101905060208303925061295c565b6001836020036101000a038019825116818451168082178552505050505050905001915050908152602001604051809103902090805190602001906129c592919061384a565b50604051806020016040528060008152506003836040518082805190602001908083835b60208310612a0c57805182526020820191506020810190506020830392506129e9565b6001836020036101000a03801982511681845116808217855250505050505090500191505090815260200160405180910390209080519060200190612a529291906138ca565b506000808281526020019081526020016000208054600181600116156101000203166002900480601f016020809104026020016040519081016040528092919081815260200182805460018160011615610100020316600290048015612af95780601f10612ace57610100808354040283529160200191612af9565b820191906000526020600020905b815481529060010190602001808311612adc57829003601f168201915b50505050509150604051806020016040528060008152506000808381526020019081526020016000209080519060200190612b3592919061384a565b5081805190602001209050612812565b6040518060400160405280600481526020017f30786666000000000000000000000000000000000000000000000000000000008152506000807f010000000000000000000000000000000000000000000000000000000000000081526020019081526020016000209080519060200190612bc092919061394a565b506000600560007f01000000000000000000000000000000000000000000000000000000000000007bffffffffffffffffffffffffffffffffffffffffffffffffffffffff19167bffffffffffffffffffffffffffffffffffffffffffffffffffffffff1916815260200190815260200160002060009054906101000a900460e01b90505b7f01000000000000000000000000000000000000000000000000000000000000007bffffffffffffffffffffffffffffffffffffffffffffffffffffffff1916817bffffffffffffffffffffffffffffffffffffffffffffffffffffffff191614612ee4576000819050600060066000837bffffffffffffffffffffffffffffffffffffffffffffffffffffffff19167bffffffffffffffffffffffffffffffffffffffffffffffffffffffff1916815260200190815260200160002060006101000a81548160ff02191690836002811115612d1d57fe5b02179055506040518060200160405280600081525060076000837bffffffffffffffffffffffffffffffffffffffffffffffffffffffff19167bffffffffffffffffffffffffffffffffffffffffffffffffffffffff191681526020019081526020016000209080519060200190612d9692919061384a565b506040518060200160405280600081525060086000837bffffffffffffffffffffffffffffffffffffffffffffffffffffffff19167bffffffffffffffffffffffffffffffffffffffffffffffffffffffff191681526020019081526020016000209080519060200190612e0b9291906138ca565b5060056000827bffffffffffffffffffffffffffffffffffffffffffffffffffffffff19167bffffffffffffffffffffffffffffffffffffffffffffffffffffffff1916815260200190815260200160002060009054906101000a900460e01b9150600060e01b60056000837bffffffffffffffffffffffffffffffffffffffffffffffffffffffff19167bffffffffffffffffffffffffffffffffffffffffffffffffffffffff1916815260200190815260200160002060006101000a81548163ffffffff021916908360e01c021790555050612c45565b7f0100000000000000000000000000000000000000000000000000000000000000600560007f01000000000000000000000000000000000000000000000000000000000000007bffffffffffffffffffffffffffffffffffffffffffffffffffffffff19167bffffffffffffffffffffffffffffffffffffffffffffffffffffffff1916815260200190815260200160002060006101000a81548163ffffffff021916908360e01c021790555060006040516020018082151515158152602001915050604051602081830303815290604052600b9080519060200190612fcb92919061394a565b506000600a60006101000a81548160ff02191690836002811115612feb57fe5b02179055506000600d819055506001600e60008282540192505081905550505050565b6001600a60006101000a81548160ff0219169083600281111561302d57fe5b021790555060405180602001604052806000815250600c90805190602001906130579291906138ca565b50565b6001808383604051808383808284378083019250505092505050908152602001604051809103902060006101000a81548160ff0219169083600281111561309d57fe5b02179055506040518060200160405280600081525060038383604051808383808284378083019250505092505050908152602001604051809103902090805190602001906130ec9291906138ca565b5061313a82828080601f016020809104026020016040519081016040528093929190818152602001838380828437600081840152601f19601f820116905080830192505050505050506131bd565b5050565b7f010000000000000000000000000000000000000000000000000000000000000081565b6131b883838080601f016020809104026020016040519081016040528093929190818152602001838380828437600081840152601f19601f820116905080830192505050505050506131b3836132a8565b6136d6565b505050565b600081805190602001209050600080600083815260200190815260200160002080546001816001161561010002031660029004905014156132a4576000807f01000000000000000000000000000000000000000000000000000000000000008152602001908152602001600020600080838152602001908152602001600020908054600181600116156101000203166002900461325b9291906139ca565b50816000807f0100000000000000000000000000000000000000000000000000000000000000815260200190815260200160002090805190602001906132a292919061394a565b505b5050565b606060206040519080825280601f01601f1916602001820160405280156132de5781602001600182028036833780820191505090505b509050816020820152919050565b6000600a60006101000a81548160ff0219169083600281111561330b57fe5b021790555080600b908051906020019061332692919061394a565b5050565b60008060008090505b60048110156133b1576008810260ff60f81b85838151811061335157fe5b602001015160f81c60f81b167effffffffffffffffffffffffffffffffffffffffffffffffffffffffffffff19167bffffffffffffffffffffffffffffffffffffffffffffffffffffffff1916901c821791508080600101915050613333565b5080915050919050565b60006001836040518082805190602001908083835b602083106133f357805182526020820191506020810190506020830392506133d0565b6001836020036101000a038019825116818451168082178552505050505050905001915050908152602001604051809103902060006101000a81548160ff0219169083600281111561344157fe5b0217905550806002836040518082805190602001908083835b6020831061347d578051825260208201915060208101905060208303925061345a565b6001836020036101000a038019825116818451168082178552505050505050905001915050908152602001604051809103902090805190602001906134c392919061394a565b506134cd826131bd565b5050565b600060e01b60056000837bffffffffffffffffffffffffffffffffffffffffffffffffffffffff19167bffffffffffffffffffffffffffffffffffffffffffffffffffffffff1916815260200190815260200160002060009054906101000a900460e01b7bffffffffffffffffffffffffffffffffffffffffffffffffffffffff191614156136d357600560007f01000000000000000000000000000000000000000000000000000000000000007bffffffffffffffffffffffffffffffffffffffffffffffffffffffff19167bffffffffffffffffffffffffffffffffffffffffffffffffffffffff1916815260200190815260200160002060009054906101000a900460e01b60056000837bffffffffffffffffffffffffffffffffffffffffffffffffffffffff19167bffffffffffffffffffffffffffffffffffffffffffffffffffffffff1916815260200190815260200160002060006101000a81548163ffffffff021916908360e01c021790555080600560007f01000000000000000000000000000000000000000000000000000000000000007bffffffffffffffffffffffffffffffffffffffffffffffffffffffff19167bffffffffffffffffffffffffffffffffffffffffffffffffffffffff1916815260200190815260200160002060006101000a81548163ffffffff021916908360e01c02179055505b50565b60006136e18361332a565b9050600060066000837bffffffffffffffffffffffffffffffffffffffffffffffffffffffff19167bffffffffffffffffffffffffffffffffffffffffffffffffffffffff1916815260200190815260200160002060006101000a81548160ff0219169083600281111561375157fe5b02179055508160076000837bffffffffffffffffffffffffffffffffffffffffffffffffffffffff19167bffffffffffffffffffffffffffffffffffffffffffffffffffffffff1916815260200190815260200160002090805190602001906137bb92919061394a565b506137c5816134d1565b505050565b828054600181600116156101000203166002900490600052602060002090601f016020900481019282601f1061380b57803560ff1916838001178555613839565b82800160010185558215613839579182015b8281111561383857823582559160200191906001019061381d565b5b5090506138469190613a51565b5090565b828054600181600116156101000203166002900490600052602060002090601f016020900481019282601f1061388b57805160ff19168380011785556138b9565b828001600101855582156138b9579182015b828111156138b857825182559160200191906001019061389d565b5b5090506138c69190613a51565b5090565b828054600181600116156101000203166002900490600052602060002090601f016020900481019282601f1061390b57805160ff1916838001178555613939565b82800160010185558215613939579182015b8281111561393857825182559160200191906001019061391d565b5b5090506139469190613a51565b5090565b828054600181600116156101000203166002900490600052602060002090601f016020900481019282601f1061398b57805160ff19168380011785556139b9565b828001600101855582156139b9579182015b828111156139b857825182559160200191906001019061399d565b5b5090506139c69190613a51565b5090565b828054600181600116156101000203166002900490600052602060002090601f016020900481019282601f10613a035780548555613a40565b82800160010185558215613a4057600052602060002091601f016020900482015b82811115613a3f578254825591600101919060010190613a24565b5b509050613a4d9190613a51565b5090565b613a7391905b80821115613a6f576000816000905550600101613a57565b5090565b9056fe43616e206f6e6c792062652063616c6c65642066726f6d2074686520636f6e747261637420697473656c66a264697066735822122009deb0b59e1fa8d506b027483764a8efd48e8741d279f2778805d090b4f9511564736f6c63430006040033",
  "linkReferences": {},
  "deployedLinkReferences": {}
}